{
  "_format": "hh-sol-artifact-1",
  "contractName": "Create",
  "sourceName": "contracts/VotingContract.sol",
  "abi": [
    {
      "inputs": [],
      "stateMutability": "nonpayable",
      "type": "constructor"
    },
    {
      "anonymous": false,
      "inputs": [
        {
          "indexed": false,
          "internalType": "uint256",
          "name": "candidateId",
          "type": "uint256"
        },
        {
          "indexed": false,
          "internalType": "string",
          "name": "age",
          "type": "string"
        },
        {
          "indexed": false,
          "internalType": "string",
          "name": "name",
          "type": "string"
        },
        {
          "indexed": false,
          "internalType": "string",
          "name": "image",
          "type": "string"
        },
        {
          "indexed": false,
          "internalType": "uint256",
          "name": "voteCount",
          "type": "uint256"
        },
        {
          "indexed": false,
          "internalType": "address",
          "name": "_address",
          "type": "address"
        },
        {
          "indexed": false,
          "internalType": "string",
          "name": "ipfs",
          "type": "string"
        }
      ],
      "name": "CandidateCreate",
      "type": "event"
    },
    {
      "anonymous": false,
      "inputs": [
        {
          "indexed": false,
          "internalType": "uint256",
          "name": "voter_voterId",
          "type": "uint256"
        },
        {
          "indexed": false,
          "internalType": "string",
          "name": "voter_name",
          "type": "string"
        },
        {
          "indexed": false,
          "internalType": "string",
          "name": "voter_image",
          "type": "string"
        },
        {
          "indexed": false,
          "internalType": "address",
          "name": "voter_address",
          "type": "address"
        },
        {
          "indexed": false,
          "internalType": "uint256",
          "name": "voter_allowed",
          "type": "uint256"
        },
        {
          "indexed": false,
          "internalType": "bool",
          "name": "voter_voted",
          "type": "bool"
        },
        {
          "indexed": false,
          "internalType": "uint256",
          "name": "voter_vote",
          "type": "uint256"
        },
        {
          "indexed": false,
          "internalType": "string",
          "name": "voter_ipfs",
          "type": "string"
        }
      ],
      "name": "VoterCreated",
      "type": "event"
    },
    {
      "inputs": [],
      "name": "_candidateId",
      "outputs": [
        {
          "internalType": "uint256",
          "name": "_value",
          "type": "uint256"
        }
      ],
      "stateMutability": "view",
      "type": "function"
    },
    {
      "inputs": [],
      "name": "_voterId",
      "outputs": [
        {
          "internalType": "uint256",
          "name": "_value",
          "type": "uint256"
        }
      ],
      "stateMutability": "view",
      "type": "function"
    },
    {
      "inputs": [
        {
          "internalType": "uint256",
          "name": "",
          "type": "uint256"
        }
      ],
      "name": "candidateAddress",
      "outputs": [
        {
          "internalType": "address",
          "name": "",
          "type": "address"
        }
      ],
      "stateMutability": "view",
      "type": "function"
    },
    {
      "inputs": [
        {
          "internalType": "address",
          "name": "",
          "type": "address"
        }
      ],
      "name": "candidates",
      "outputs": [
        {
          "internalType": "uint256",
          "name": "candidateId",
          "type": "uint256"
        },
        {
          "internalType": "string",
          "name": "age",
          "type": "string"
        },
        {
          "internalType": "string",
          "name": "name",
          "type": "string"
        },
        {
          "internalType": "string",
          "name": "image",
          "type": "string"
        },
        {
          "internalType": "uint256",
          "name": "voteCount",
          "type": "uint256"
        },
        {
          "internalType": "address",
          "name": "_address",
          "type": "address"
        },
        {
          "internalType": "string",
          "name": "ipfs",
          "type": "string"
        }
      ],
      "stateMutability": "view",
      "type": "function"
    },
    {
      "inputs": [],
      "name": "getCandidate",
      "outputs": [
        {
          "internalType": "address[]",
          "name": "",
          "type": "address[]"
        }
      ],
      "stateMutability": "view",
      "type": "function"
    },
    {
      "inputs": [
        {
          "internalType": "address",
          "name": "_address",
          "type": "address"
        }
      ],
      "name": "getCandidateData",
      "outputs": [
        {
          "internalType": "string",
          "name": "",
          "type": "string"
        },
        {
          "internalType": "string",
          "name": "",
          "type": "string"
        },
        {
          "internalType": "uint256",
          "name": "",
          "type": "uint256"
        },
        {
          "internalType": "string",
          "name": "",
          "type": "string"
        },
        {
          "internalType": "uint256",
          "name": "",
          "type": "uint256"
        },
        {
          "internalType": "string",
          "name": "",
          "type": "string"
        },
        {
          "internalType": "address",
          "name": "",
          "type": "address"
        }
      ],
      "stateMutability": "view",
      "type": "function"
    },
    {
      "inputs": [],
      "name": "getCandidateLength",
      "outputs": [
        {
          "internalType": "uint256",
          "name": "",
          "type": "uint256"
        }
      ],
      "stateMutability": "view",
      "type": "function"
    },
    {
      "inputs": [],
      "name": "getVotedVoterList",
      "outputs": [
        {
          "internalType": "address[]",
          "name": "",
          "type": "address[]"
        }
      ],
      "stateMutability": "view",
      "type": "function"
    },
    {
      "inputs": [
        {
          "internalType": "address",
          "name": "_address",
          "type": "address"
        }
      ],
      "name": "getVoterData",
      "outputs": [
        {
          "internalType": "uint256",
          "name": "",
          "type": "uint256"
        },
        {
          "internalType": "string",
          "name": "",
          "type": "string"
        },
        {
          "internalType": "string",
          "name": "",
          "type": "string"
        },
        {
          "internalType": "address",
          "name": "",
          "type": "address"
        },
        {
          "internalType": "string",
          "name": "",
          "type": "string"
        },
        {
          "internalType": "uint256",
          "name": "",
          "type": "uint256"
        },
        {
          "internalType": "bool",
          "name": "",
          "type": "bool"
        }
      ],
      "stateMutability": "view",
      "type": "function"
    },
    {
      "inputs": [],
      "name": "getVoterLength",
      "outputs": [
        {
          "internalType": "uint256",
          "name": "",
          "type": "uint256"
        }
      ],
      "stateMutability": "view",
      "type": "function"
    },
    {
      "inputs": [],
      "name": "getVoterList",
      "outputs": [
        {
          "internalType": "address[]",
          "name": "",
          "type": "address[]"
        }
      ],
      "stateMutability": "view",
      "type": "function"
    },
    {
      "inputs": [
        {
          "internalType": "address",
          "name": "_address",
          "type": "address"
        },
        {
          "internalType": "string",
          "name": "_age",
          "type": "string"
        },
        {
          "internalType": "string",
          "name": "_name",
          "type": "string"
        },
        {
          "internalType": "string",
          "name": "_image",
          "type": "string"
        },
        {
          "internalType": "string",
          "name": "_ipfs",
          "type": "string"
        }
      ],
      "name": "setCandidate",
      "outputs": [],
      "stateMutability": "nonpayable",
      "type": "function"
    },
    {
      "inputs": [
        {
          "internalType": "address",
          "name": "_candidateAddress",
          "type": "address"
        },
        {
          "internalType": "uint256",
          "name": "_candidateVoteId",
          "type": "uint256"
        }
      ],
      "name": "vote",
      "outputs": [],
      "stateMutability": "nonpayable",
      "type": "function"
    },
    {
      "inputs": [
        {
          "internalType": "uint256",
          "name": "",
          "type": "uint256"
        }
      ],
      "name": "votedVoters",
      "outputs": [
        {
          "internalType": "address",
          "name": "",
          "type": "address"
        }
      ],
      "stateMutability": "view",
      "type": "function"
    },
    {
      "inputs": [
        {
          "internalType": "address",
          "name": "_address",
          "type": "address"
        },
        {
          "internalType": "string",
          "name": "_name",
          "type": "string"
        },
        {
          "internalType": "string",
          "name": "_image",
          "type": "string"
        },
        {
          "internalType": "string",
          "name": "_ipfs",
          "type": "string"
        }
      ],
      "name": "voterRight",
      "outputs": [],
      "stateMutability": "nonpayable",
      "type": "function"
    },
    {
      "inputs": [
        {
          "internalType": "address",
          "name": "",
          "type": "address"
        }
      ],
      "name": "voters",
      "outputs": [
        {
          "internalType": "uint256",
          "name": "voter_voterId",
          "type": "uint256"
        },
        {
          "internalType": "string",
          "name": "voter_name",
          "type": "string"
        },
        {
          "internalType": "string",
          "name": "voter_image",
          "type": "string"
        },
        {
          "internalType": "address",
          "name": "voter_address",
          "type": "address"
        },
        {
          "internalType": "uint256",
          "name": "voter_allowed",
          "type": "uint256"
        },
        {
          "internalType": "bool",
          "name": "voter_voted",
          "type": "bool"
        },
        {
          "internalType": "uint256",
          "name": "voter_vote",
          "type": "uint256"
        },
        {
          "internalType": "string",
          "name": "voter_ipfs",
          "type": "string"
        }
      ],
      "stateMutability": "view",
      "type": "function"
    },
    {
      "inputs": [
        {
          "internalType": "uint256",
          "name": "",
          "type": "uint256"
        }
      ],
      "name": "votersAddress",
      "outputs": [
        {
          "internalType": "address",
          "name": "",
          "type": "address"
        }
      ],
      "stateMutability": "view",
      "type": "function"
    },
    {
      "inputs": [],
      "name": "votingOrganizer",
      "outputs": [
        {
          "internalType": "address",
          "name": "",
          "type": "address"
        }
      ],
      "stateMutability": "view",
      "type": "function"
    }
  ],
  "bytecode": "0x608060405234801561001057600080fd5b5033600260006101000a81548173ffffffffffffffffffffffffffffffffffffffff021916908373ffffffffffffffffffffffffffffffffffffffff16021790555061273b806100616000396000f3fe608060405234801561001057600080fd5b50600436106101165760003560e01c80638ab66a90116100a2578063a738896711610071578063a738896714610334578063b28d92ae14610352578063b9be315214610370578063c91ec7121461038e578063f7522a83146103aa57610116565b80638ab66a90146102735780638e945685146102a95780638fb4cd80146102c7578063a3ec138d146102fd57610116565b806343242daa116100e957806343242daa146101bb5780635cc48aa7146101eb5780635f74bbde1461020957806370218b85146102255780637831ffb31461024357610116565b80630361419e1461011b57806305ad45a4146101375780632a466ac7146101555780633a88251a1461018b575b600080fd5b61013560048036038101906101309190611b7d565b6103c8565b005b61013f610641565b60405161014c9190611c51565b60405180910390f35b61016f600480360381019061016a9190611c6c565b61064e565b6040516101829796959493929190611d27565b60405180910390f35b6101a560048036038101906101a09190611dde565b610a95565b6040516101b29190611e0b565b60405180910390f35b6101d560048036038101906101d09190611dde565b610ad4565b6040516101e29190611e0b565b60405180910390f35b6101f3610b13565b6040516102009190611e0b565b60405180910390f35b610223600480360381019061021e9190611e26565b610b39565b005b61022d610d00565b60405161023a9190611f24565b60405180910390f35b61025d60048036038101906102589190611dde565b610d8e565b60405161026a9190611e0b565b60405180910390f35b61028d60048036038101906102889190611c6c565b610dcd565b6040516102a09796959493929190611f46565b60405180910390f35b6102b161104f565b6040516102be9190611f24565b60405180910390f35b6102e160048036038101906102dc9190611c6c565b6110dd565b6040516102f49796959493929190611fec565b60405180910390f35b61031760048036038101906103129190611c6c565b6114a5565b60405161032b989796959493929190612070565b60405180910390f35b61033c6116b2565b6040516103499190611c51565b60405180910390f35b61035a6116be565b6040516103679190611f24565b60405180910390f35b61037861174c565b6040516103859190611c51565b60405180910390f35b6103a860048036038101906103a39190612103565b611758565b005b6103b2611994565b6040516103bf9190611c51565b60405180910390f35b3373ffffffffffffffffffffffffffffffffffffffff16600260009054906101000a900473ffffffffffffffffffffffffffffffffffffffff1673ffffffffffffffffffffffffffffffffffffffff1614610458576040517f08c379a000000000000000000000000000000000000000000000000000000000815260040161044f9061223a565b60405180910390fd5b61046260006119a1565b600061046e60006119b7565b90506000600760008773ffffffffffffffffffffffffffffffffffffffff1673ffffffffffffffffffffffffffffffffffffffff168152602001908152602001600020905060008160040154146104c457600080fd5b60018160040181905550848160010190816104df9190612466565b50838160020190816104f19190612466565b50858160030160006101000a81548173ffffffffffffffffffffffffffffffffffffffff021916908373ffffffffffffffffffffffffffffffffffffffff1602179055508181600001819055506103e8816006018190555060008160050160006101000a81548160ff021916908315150217905550828160070190816105779190612466565b506006869080600181540180825580915050600190039060005260206000200160009091909190916101000a81548173ffffffffffffffffffffffffffffffffffffffff021916908373ffffffffffffffffffffffffffffffffffffffff1602179055507ff5f39971dd62d9929e3a9feaa6bb77fe7c7da0001babff8a65a7e51ad0201c198286868985600401548660050160009054906101000a900460ff1687600601548a604051610631989796959493929190612070565b60405180910390a1505050505050565b6000600680549050905090565b60608060006060600060606000600460008973ffffffffffffffffffffffffffffffffffffffff1673ffffffffffffffffffffffffffffffffffffffff168152602001908152602001600020600101600460008a73ffffffffffffffffffffffffffffffffffffffff1673ffffffffffffffffffffffffffffffffffffffff168152602001908152602001600020600201600460008b73ffffffffffffffffffffffffffffffffffffffff1673ffffffffffffffffffffffffffffffffffffffff16815260200190815260200160002060000154600460008c73ffffffffffffffffffffffffffffffffffffffff1673ffffffffffffffffffffffffffffffffffffffff168152602001908152602001600020600301600460008d73ffffffffffffffffffffffffffffffffffffffff1673ffffffffffffffffffffffffffffffffffffffff16815260200190815260200160002060040154600460008e73ffffffffffffffffffffffffffffffffffffffff1673ffffffffffffffffffffffffffffffffffffffff168152602001908152602001600020600601600460008f73ffffffffffffffffffffffffffffffffffffffff1673ffffffffffffffffffffffffffffffffffffffff16815260200190815260200160002060050160009054906101000a900473ffffffffffffffffffffffffffffffffffffffff1686805461085890612289565b80601f016020809104026020016040519081016040528092919081815260200182805461088490612289565b80156108d15780601f106108a6576101008083540402835291602001916108d1565b820191906000526020600020905b8154815290600101906020018083116108b457829003601f168201915b505050505096508580546108e490612289565b80601f016020809104026020016040519081016040528092919081815260200182805461091090612289565b801561095d5780601f106109325761010080835404028352916020019161095d565b820191906000526020600020905b81548152906001019060200180831161094057829003601f168201915b5050505050955083805461097090612289565b80601f016020809104026020016040519081016040528092919081815260200182805461099c90612289565b80156109e95780601f106109be576101008083540402835291602001916109e9565b820191906000526020600020905b8154815290600101906020018083116109cc57829003601f168201915b505050505093508180546109fc90612289565b80601f0160208091040260200160405190810160405280929190818152602001828054610a2890612289565b8015610a755780601f10610a4a57610100808354040283529160200191610a75565b820191906000526020600020905b815481529060010190602001808311610a5857829003601f168201915b505050505091509650965096509650965096509650919395979092949650565b60038181548110610aa557600080fd5b906000526020600020016000915054906101000a900473ffffffffffffffffffffffffffffffffffffffff1681565b60068181548110610ae457600080fd5b906000526020600020016000915054906101000a900473ffffffffffffffffffffffffffffffffffffffff1681565b600260009054906101000a900473ffffffffffffffffffffffffffffffffffffffff1681565b6000600760003373ffffffffffffffffffffffffffffffffffffffff1673ffffffffffffffffffffffffffffffffffffffff16815260200190815260200160002090508060050160009054906101000a900460ff1615610bce576040517f08c379a0000000000000000000000000000000000000000000000000000000008152600401610bc590612584565b60405180910390fd5b6000816004015403610c15576040517f08c379a0000000000000000000000000000000000000000000000000000000008152600401610c0c906125f0565b60405180910390fd5b60018160050160006101000a81548160ff0219169083151502179055508181600601819055506005339080600181540180825580915050600190039060005260206000200160009091909190916101000a81548173ffffffffffffffffffffffffffffffffffffffff021916908373ffffffffffffffffffffffffffffffffffffffff1602179055508060040154600460008573ffffffffffffffffffffffffffffffffffffffff1673ffffffffffffffffffffffffffffffffffffffff1681526020019081526020016000206004016000828254610cf4919061263f565b92505081905550505050565b60606003805480602002602001604051908101604052809291908181526020018280548015610d8457602002820191906000526020600020905b8160009054906101000a900473ffffffffffffffffffffffffffffffffffffffff1673ffffffffffffffffffffffffffffffffffffffff1681526020019060010190808311610d3a575b5050505050905090565b60058181548110610d9e57600080fd5b906000526020600020016000915054906101000a900473ffffffffffffffffffffffffffffffffffffffff1681565b6004602052806000526040600020600091509050806000015490806001018054610df690612289565b80601f0160208091040260200160405190810160405280929190818152602001828054610e2290612289565b8015610e6f5780601f10610e4457610100808354040283529160200191610e6f565b820191906000526020600020905b815481529060010190602001808311610e5257829003601f168201915b505050505090806002018054610e8490612289565b80601f0160208091040260200160405190810160405280929190818152602001828054610eb090612289565b8015610efd5780601f10610ed257610100808354040283529160200191610efd565b820191906000526020600020905b815481529060010190602001808311610ee057829003601f168201915b505050505090806003018054610f1290612289565b80601f0160208091040260200160405190810160405280929190818152602001828054610f3e90612289565b8015610f8b5780601f10610f6057610100808354040283529160200191610f8b565b820191906000526020600020905b815481529060010190602001808311610f6e57829003601f168201915b5050505050908060040154908060050160009054906101000a900473ffffffffffffffffffffffffffffffffffffffff1690806006018054610fcc90612289565b80601f0160208091040260200160405190810160405280929190818152602001828054610ff890612289565b80156110455780601f1061101a57610100808354040283529160200191611045565b820191906000526020600020905b81548152906001019060200180831161102857829003601f168201915b5050505050905087565b606060058054806020026020016040519081016040528092919081815260200182805480156110d357602002820191906000526020600020905b8160009054906101000a900473ffffffffffffffffffffffffffffffffffffffff1673ffffffffffffffffffffffffffffffffffffffff1681526020019060010190808311611089575b5050505050905090565b600060608060006060600080600760008973ffffffffffffffffffffffffffffffffffffffff1673ffffffffffffffffffffffffffffffffffffffff16815260200190815260200160002060000154600760008a73ffffffffffffffffffffffffffffffffffffffff1673ffffffffffffffffffffffffffffffffffffffff168152602001908152602001600020600101600760008b73ffffffffffffffffffffffffffffffffffffffff1673ffffffffffffffffffffffffffffffffffffffff168152602001908152602001600020600201600760008c73ffffffffffffffffffffffffffffffffffffffff1673ffffffffffffffffffffffffffffffffffffffff16815260200190815260200160002060030160009054906101000a900473ffffffffffffffffffffffffffffffffffffffff16600760008d73ffffffffffffffffffffffffffffffffffffffff1673ffffffffffffffffffffffffffffffffffffffff168152602001908152602001600020600701600760008e73ffffffffffffffffffffffffffffffffffffffff1673ffffffffffffffffffffffffffffffffffffffff16815260200190815260200160002060040154600760008f73ffffffffffffffffffffffffffffffffffffffff1673ffffffffffffffffffffffffffffffffffffffff16815260200190815260200160002060050160009054906101000a900460ff168580546112f490612289565b80601f016020809104026020016040519081016040528092919081815260200182805461132090612289565b801561136d5780601f106113425761010080835404028352916020019161136d565b820191906000526020600020905b81548152906001019060200180831161135057829003601f168201915b5050505050955084805461138090612289565b80601f01602080910402602001604051908101604052809291908181526020018280546113ac90612289565b80156113f95780601f106113ce576101008083540402835291602001916113f9565b820191906000526020600020905b8154815290600101906020018083116113dc57829003601f168201915b5050505050945082805461140c90612289565b80601f016020809104026020016040519081016040528092919081815260200182805461143890612289565b80156114855780601f1061145a57610100808354040283529160200191611485565b820191906000526020600020905b81548152906001019060200180831161146857829003601f168201915b505050505092509650965096509650965096509650919395979092949650565b60076020528060005260406000206000915090508060000154908060010180546114ce90612289565b80601f01602080910402602001604051908101604052809291908181526020018280546114fa90612289565b80156115475780601f1061151c57610100808354040283529160200191611547565b820191906000526020600020905b81548152906001019060200180831161152a57829003601f168201915b50505050509080600201805461155c90612289565b80601f016020809104026020016040519081016040528092919081815260200182805461158890612289565b80156115d55780601f106115aa576101008083540402835291602001916115d5565b820191906000526020600020905b8154815290600101906020018083116115b857829003601f168201915b5050505050908060030160009054906101000a900473ffffffffffffffffffffffffffffffffffffffff16908060040154908060050160009054906101000a900460ff169080600601549080600701805461162f90612289565b80601f016020809104026020016040519081016040528092919081815260200182805461165b90612289565b80156116a85780601f1061167d576101008083540402835291602001916116a8565b820191906000526020600020905b81548152906001019060200180831161168b57829003601f168201915b5050505050905088565b60018060000154905081565b6060600680548060200260200160405190810160405280929190818152602001828054801561174257602002820191906000526020600020905b8160009054906101000a900473ffffffffffffffffffffffffffffffffffffffff1673ffffffffffffffffffffffffffffffffffffffff16815260200190600101908083116116f8575b5050505050905090565b60008060000154905081565b3373ffffffffffffffffffffffffffffffffffffffff16600260009054906101000a900473ffffffffffffffffffffffffffffffffffffffff1673ffffffffffffffffffffffffffffffffffffffff16146117e8576040517f08c379a00000000000000000000000000000000000000000000000000000000081526004016117df906126e5565b60405180910390fd5b6117f260016119a1565b60006117fe60016119b7565b90506000600460008873ffffffffffffffffffffffffffffffffffffffff1673ffffffffffffffffffffffffffffffffffffffff1681526020019081526020016000209050858160010190816118549190612466565b50848160020190816118669190612466565b50818160000181905550838160030190816118819190612466565b5060008160040181905550868160050160006101000a81548173ffffffffffffffffffffffffffffffffffffffff021916908373ffffffffffffffffffffffffffffffffffffffff160217905550828160060190816118e09190612466565b506003879080600181540180825580915050600190039060005260206000200160009091909190916101000a81548173ffffffffffffffffffffffffffffffffffffffff021916908373ffffffffffffffffffffffffffffffffffffffff1602179055507fd297f12b256bb8485a6013fb5e302017018123e99a0ebb20756c09e1707b4b908287878785600401548c896040516119839796959493929190611f46565b60405180910390a150505050505050565b6000600380549050905090565b6001816000016000828254019250508190555050565b600081600001549050919050565b6000604051905090565b600080fd5b600080fd5b600073ffffffffffffffffffffffffffffffffffffffff82169050919050565b6000611a04826119d9565b9050919050565b611a14816119f9565b8114611a1f57600080fd5b50565b600081359050611a3181611a0b565b92915050565b600080fd5b600080fd5b6000601f19601f8301169050919050565b7f4e487b7100000000000000000000000000000000000000000000000000000000600052604160045260246000fd5b611a8a82611a41565b810181811067ffffffffffffffff82111715611aa957611aa8611a52565b5b80604052505050565b6000611abc6119c5565b9050611ac88282611a81565b919050565b600067ffffffffffffffff821115611ae857611ae7611a52565b5b611af182611a41565b9050602081019050919050565b82818337600083830152505050565b6000611b20611b1b84611acd565b611ab2565b905082815260208101848484011115611b3c57611b3b611a3c565b5b611b47848285611afe565b509392505050565b600082601f830112611b6457611b63611a37565b5b8135611b74848260208601611b0d565b91505092915050565b60008060008060808587031215611b9757611b966119cf565b5b6000611ba587828801611a22565b945050602085013567ffffffffffffffff811115611bc657611bc56119d4565b5b611bd287828801611b4f565b935050604085013567ffffffffffffffff811115611bf357611bf26119d4565b5b611bff87828801611b4f565b925050606085013567ffffffffffffffff811115611c2057611c1f6119d4565b5b611c2c87828801611b4f565b91505092959194509250565b6000819050919050565b611c4b81611c38565b82525050565b6000602082019050611c666000830184611c42565b92915050565b600060208284031215611c8257611c816119cf565b5b6000611c9084828501611a22565b91505092915050565b600081519050919050565b600082825260208201905092915050565b60005b83811015611cd3578082015181840152602081019050611cb8565b60008484015250505050565b6000611cea82611c99565b611cf48185611ca4565b9350611d04818560208601611cb5565b611d0d81611a41565b840191505092915050565b611d21816119f9565b82525050565b600060e0820190508181036000830152611d41818a611cdf565b90508181036020830152611d558189611cdf565b9050611d646040830188611c42565b8181036060830152611d768187611cdf565b9050611d856080830186611c42565b81810360a0830152611d978185611cdf565b9050611da660c0830184611d18565b98975050505050505050565b611dbb81611c38565b8114611dc657600080fd5b50565b600081359050611dd881611db2565b92915050565b600060208284031215611df457611df36119cf565b5b6000611e0284828501611dc9565b91505092915050565b6000602082019050611e206000830184611d18565b92915050565b60008060408385031215611e3d57611e3c6119cf565b5b6000611e4b85828601611a22565b9250506020611e5c85828601611dc9565b9150509250929050565b600081519050919050565b600082825260208201905092915050565b6000819050602082019050919050565b611e9b816119f9565b82525050565b6000611ead8383611e92565b60208301905092915050565b6000602082019050919050565b6000611ed182611e66565b611edb8185611e71565b9350611ee683611e82565b8060005b83811015611f17578151611efe8882611ea1565b9750611f0983611eb9565b925050600181019050611eea565b5085935050505092915050565b60006020820190508181036000830152611f3e8184611ec6565b905092915050565b600060e082019050611f5b600083018a611c42565b8181036020830152611f6d8189611cdf565b90508181036040830152611f818188611cdf565b90508181036060830152611f958187611cdf565b9050611fa46080830186611c42565b611fb160a0830185611d18565b81810360c0830152611fc38184611cdf565b905098975050505050505050565b60008115159050919050565b611fe681611fd1565b82525050565b600060e082019050612001600083018a611c42565b81810360208301526120138189611cdf565b905081810360408301526120278188611cdf565b90506120366060830187611d18565b81810360808301526120488186611cdf565b905061205760a0830185611c42565b61206460c0830184611fdd565b98975050505050505050565b600061010082019050612086600083018b611c42565b8181036020830152612098818a611cdf565b905081810360408301526120ac8189611cdf565b90506120bb6060830188611d18565b6120c86080830187611c42565b6120d560a0830186611fdd565b6120e260c0830185611c42565b81810360e08301526120f48184611cdf565b90509998505050505050505050565b600080600080600060a0868803121561211f5761211e6119cf565b5b600061212d88828901611a22565b955050602086013567ffffffffffffffff81111561214e5761214d6119d4565b5b61215a88828901611b4f565b945050604086013567ffffffffffffffff81111561217b5761217a6119d4565b5b61218788828901611b4f565b935050606086013567ffffffffffffffff8111156121a8576121a76119d4565b5b6121b488828901611b4f565b925050608086013567ffffffffffffffff8111156121d5576121d46119d4565b5b6121e188828901611b4f565b9150509295509295909350565b7f4f6e6c79206f7267616e697a65722063616e2063726561746520566f74657200600082015250565b6000612224601f83611ca4565b915061222f826121ee565b602082019050919050565b6000602082019050818103600083015261225381612217565b9050919050565b7f4e487b7100000000000000000000000000000000000000000000000000000000600052602260045260246000fd5b600060028204905060018216806122a157607f821691505b6020821081036122b4576122b361225a565b5b50919050565b60008190508160005260206000209050919050565b60006020601f8301049050919050565b600082821b905092915050565b60006008830261231c7fffffffffffffffffffffffffffffffffffffffffffffffffffffffffffffffff826122df565b61232686836122df565b95508019841693508086168417925050509392505050565b6000819050919050565b600061236361235e61235984611c38565b61233e565b611c38565b9050919050565b6000819050919050565b61237d83612348565b6123916123898261236a565b8484546122ec565b825550505050565b600090565b6123a6612399565b6123b1818484612374565b505050565b5b818110156123d5576123ca60008261239e565b6001810190506123b7565b5050565b601f82111561241a576123eb816122ba565b6123f4846122cf565b81016020851015612403578190505b61241761240f856122cf565b8301826123b6565b50505b505050565b600082821c905092915050565b600061243d6000198460080261241f565b1980831691505092915050565b6000612456838361242c565b9150826002028217905092915050565b61246f82611c99565b67ffffffffffffffff81111561248857612487611a52565b5b6124928254612289565b61249d8282856123d9565b600060209050601f8311600181146124d057600084156124be578287015190505b6124c8858261244a565b865550612530565b601f1984166124de866122ba565b60005b82811015612506578489015182556001820191506020850194506020810190506124e1565b86831015612523578489015161251f601f89168261242c565b8355505b6001600288020188555050505b505050505050565b7f596f75206861766520616c726561647920566f74656400000000000000000000600082015250565b600061256e601683611ca4565b915061257982612538565b602082019050919050565b6000602082019050818103600083015261259d81612561565b9050919050565b7f596f752068617665206e6f20726967687420746f20566f746500000000000000600082015250565b60006125da601983611ca4565b91506125e5826125a4565b602082019050919050565b60006020820190508181036000830152612609816125cd565b9050919050565b7f4e487b7100000000000000000000000000000000000000000000000000000000600052601160045260246000fd5b600061264a82611c38565b915061265583611c38565b925082820190508082111561266d5761266c612610565b5b92915050565b7f4f6e6c79204f7267616e697a65722063616e20616c6c6f636174652063616e6460008201527f6964617465730000000000000000000000000000000000000000000000000000602082015250565b60006126cf602683611ca4565b91506126da82612673565b604082019050919050565b600060208201905081810360008301526126fe816126c2565b905091905056fea2646970667358221220b2efb881d670843358dd51f01d8b22a5f69400ec489b9be4464de12de0e7322864736f6c63430008120033",
  "linkReferences": {},
  "deployedLinkReferences": {}
}